:0C800000F8B500BFF8BC08BC9E467047F5
:10800C0010B5054C237833B9044B13B10448AFF3C6
:10801C0000800123237010BDCC8001000000000003
:10802C00BC80000008B5034B1BB103490348AFF3F8
:10803C00008008BD00000000D0800100BC80000062
:10804C000F4E4FF0080030600E4E4FF080703060D5
:10805C000D4E002630600D4E002630600C4E002672
:10806C0030604FF480524FF000030A4E32600A49E0
:10807C000139FDD1336008490139FDD1F6E7000023
:10808C0028B76202000C0240040C0240080C0240AB
:0C809C000C0C0240140C024000350C00DB
:0C80A800F8B500BFF8BC08BC9E4670474D
:0880B400000002204D800000D5
:0480BC0000000000C0
:020000021000EC
:0480C000318000000B
:0480C4000D8000002B
:0480C80000000000B4
:040000030000800C6D
:00000001FF
